{
  "contractName": "Token",
  "abi": [
    {
      "inputs": [
        {
          "internalType": "uint256",
          "name": "_initialSupply",
          "type": "uint256"
        }
      ],
      "stateMutability": "nonpayable",
      "type": "constructor"
    },
    {
      "anonymous": false,
      "inputs": [
        {
          "indexed": true,
          "internalType": "address",
          "name": "owner",
          "type": "address"
        },
        {
          "indexed": true,
          "internalType": "address",
          "name": "spender",
          "type": "address"
        },
        {
          "indexed": false,
          "internalType": "uint256",
          "name": "value",
          "type": "uint256"
        }
      ],
      "name": "Approval",
      "type": "event"
    },
    {
      "anonymous": false,
      "inputs": [
        {
          "indexed": true,
          "internalType": "address",
          "name": "from",
          "type": "address"
        },
        {
          "indexed": true,
          "internalType": "address",
          "name": "to",
          "type": "address"
        },
        {
          "indexed": false,
          "internalType": "uint256",
          "name": "value",
          "type": "uint256"
        }
      ],
      "name": "Transfer",
      "type": "event"
    },
    {
      "inputs": [
        {
          "internalType": "address",
          "name": "",
          "type": "address"
        },
        {
          "internalType": "address",
          "name": "",
          "type": "address"
        }
      ],
      "name": "allowance",
      "outputs": [
        {
          "internalType": "uint256",
          "name": "",
          "type": "uint256"
        }
      ],
      "stateMutability": "view",
      "type": "function",
      "constant": true
    },
    {
      "inputs": [
        {
          "internalType": "address",
          "name": "",
          "type": "address"
        }
      ],
      "name": "balanceOf",
      "outputs": [
        {
          "internalType": "uint256",
          "name": "",
          "type": "uint256"
        }
      ],
      "stateMutability": "view",
      "type": "function",
      "constant": true
    },
    {
      "inputs": [],
      "name": "decimals",
      "outputs": [
        {
          "internalType": "uint8",
          "name": "",
          "type": "uint8"
        }
      ],
      "stateMutability": "view",
      "type": "function",
      "constant": true
    },
    {
      "inputs": [],
      "name": "name",
      "outputs": [
        {
          "internalType": "string",
          "name": "",
          "type": "string"
        }
      ],
      "stateMutability": "view",
      "type": "function",
      "constant": true
    },
    {
      "inputs": [],
      "name": "symbol",
      "outputs": [
        {
          "internalType": "string",
          "name": "",
          "type": "string"
        }
      ],
      "stateMutability": "view",
      "type": "function",
      "constant": true
    },
    {
      "inputs": [],
      "name": "totalSupply",
      "outputs": [
        {
          "internalType": "uint256",
          "name": "",
          "type": "uint256"
        }
      ],
      "stateMutability": "view",
      "type": "function",
      "constant": true
    },
    {
      "inputs": [
        {
          "internalType": "address",
          "name": "_to",
          "type": "address"
        },
        {
          "internalType": "uint256",
          "name": "_value",
          "type": "uint256"
        }
      ],
      "name": "transfer",
      "outputs": [
        {
          "internalType": "bool",
          "name": "success",
          "type": "bool"
        }
      ],
      "stateMutability": "nonpayable",
      "type": "function"
    },
    {
      "inputs": [
        {
          "internalType": "address",
          "name": "_spender",
          "type": "address"
        },
        {
          "internalType": "uint256",
          "name": "_value",
          "type": "uint256"
        }
      ],
      "name": "approve",
      "outputs": [
        {
          "internalType": "bool",
          "name": "success",
          "type": "bool"
        }
      ],
      "stateMutability": "nonpayable",
      "type": "function"
    },
    {
      "inputs": [
        {
          "internalType": "address",
          "name": "_from",
          "type": "address"
        },
        {
          "internalType": "address",
          "name": "_to",
          "type": "address"
        },
        {
          "internalType": "uint256",
          "name": "_value",
          "type": "uint256"
        }
      ],
      "name": "transferFrom",
      "outputs": [
        {
          "internalType": "bool",
          "name": "success",
          "type": "bool"
        }
      ],
      "stateMutability": "nonpayable",
      "type": "function"
    },
    {
      "inputs": [],
      "name": "getTotalSupply",
      "outputs": [
        {
          "internalType": "uint256",
          "name": "",
          "type": "uint256"
        }
      ],
      "stateMutability": "view",
      "type": "function",
      "constant": true
    },
    {
      "inputs": [
        {
          "internalType": "address",
          "name": "_owner",
          "type": "address"
        }
      ],
      "name": "getBalanceOf",
      "outputs": [
        {
          "internalType": "uint256",
          "name": "balance",
          "type": "uint256"
        }
      ],
      "stateMutability": "view",
      "type": "function",
      "constant": true
    },
    {
      "inputs": [
        {
          "internalType": "address",
          "name": "_owner",
          "type": "address"
        },
        {
          "internalType": "address",
          "name": "_spender",
          "type": "address"
        }
      ],
      "name": "getAllowance",
      "outputs": [
        {
          "internalType": "uint256",
          "name": "remaining",
          "type": "uint256"
        }
      ],
      "stateMutability": "view",
      "type": "function",
      "constant": true
    }
  ],
  "bytecode": "0x60806040526040518060400160405280600881526020017f4d7920546f6b656e000000000000000000000000000000000000000000000000815250600090805190602001906200005192919062000170565b506040518060400160405280600381526020017f4d544b0000000000000000000000000000000000000000000000000000000000815250600190805190602001906200009f92919062000170565b506012600260006101000a81548160ff021916908360ff160217905550348015620000c957600080fd5b50604051620014bd380380620014bd8339818101604052810190620000ef919062000260565b600260009054906101000a900460ff1660ff16600a62000110919062000415565b816200011d919062000466565b600381905550600354600460003373ffffffffffffffffffffffffffffffffffffffff1673ffffffffffffffffffffffffffffffffffffffff16815260200190815260200160002081905550506200052c565b8280546200017e90620004f6565b90600052602060002090601f016020900481019282620001a25760008555620001ee565b82601f10620001bd57805160ff1916838001178555620001ee565b82800160010185558215620001ee579182015b82811115620001ed578251825591602001919060010190620001d0565b5b509050620001fd919062000201565b5090565b5b808211156200021c57600081600090555060010162000202565b5090565b600080fd5b6000819050919050565b6200023a8162000225565b81146200024657600080fd5b50565b6000815190506200025a816200022f565b92915050565b60006020828403121562000279576200027862000220565b5b6000620002898482850162000249565b91505092915050565b7f4e487b7100000000000000000000000000000000000000000000000000000000600052601160045260246000fd5b60008160011c9050919050565b6000808291508390505b60018511156200032057808604811115620002f857620002f762000292565b5b6001851615620003085780820291505b80810290506200031885620002c1565b9450620002d8565b94509492505050565b6000826200033b57600190506200040e565b816200034b57600090506200040e565b81600181146200036457600281146200036f57620003a5565b60019150506200040e565b60ff84111562000384576200038362000292565b5b8360020a9150848211156200039e576200039d62000292565b5b506200040e565b5060208310610133831016604e8410600b8410161715620003df5782820a905083811115620003d957620003d862000292565b5b6200040e565b620003ee8484846001620002ce565b9250905081840481111562000408576200040762000292565b5b81810290505b9392505050565b6000620004228262000225565b91506200042f8362000225565b92506200045e7fffffffffffffffffffffffffffffffffffffffffffffffffffffffffffffffff848462000329565b905092915050565b6000620004738262000225565b9150620004808362000225565b9250817fffffffffffffffffffffffffffffffffffffffffffffffffffffffffffffffff0483118215151615620004bc57620004bb62000292565b5b828202905092915050565b7f4e487b7100000000000000000000000000000000000000000000000000000000600052602260045260246000fd5b600060028204905060018216806200050f57607f821691505b60208210811415620005265762000525620004c7565b5b50919050565b610f81806200053c6000396000f3fe608060405234801561001057600080fd5b50600436106100b45760003560e01c806370a082311161007157806370a08231146101a357806395d89b41146101d35780639b96eece146101f1578063a9059cbb14610221578063c4e41b2214610251578063dd62ed3e1461026f576100b4565b806306fdde03146100b9578063095ea7b3146100d75780630af4187d1461010757806318160ddd1461013757806323b872dd14610155578063313ce56714610185575b600080fd5b6100c161029f565b6040516100ce9190610b07565b60405180910390f35b6100f160048036038101906100ec9190610bc2565b61032d565b6040516100fe9190610c1d565b60405180910390f35b610121600480360381019061011c9190610c38565b61041f565b60405161012e9190610c87565b60405180910390f35b61013f6104a6565b60405161014c9190610c87565b60405180910390f35b61016f600480360381019061016a9190610ca2565b6104ac565b60405161017c9190610c1d565b60405180910390f35b61018d61079e565b60405161019a9190610d11565b60405180910390f35b6101bd60048036038101906101b89190610d2c565b6107b1565b6040516101ca9190610c87565b60405180910390f35b6101db6107c9565b6040516101e89190610b07565b60405180910390f35b61020b60048036038101906102069190610d2c565b610857565b6040516102189190610c87565b60405180910390f35b61023b60048036038101906102369190610bc2565b6108a0565b6040516102489190610c1d565b60405180910390f35b610259610a3f565b6040516102669190610c87565b60405180910390f35b61028960048036038101906102849190610c38565b610a49565b6040516102969190610c87565b60405180910390f35b600080546102ac90610d88565b80601f01602080910402602001604051908101604052809291908181526020018280546102d890610d88565b80156103255780601f106102fa57610100808354040283529160200191610325565b820191906000526020600020905b81548152906001019060200180831161030857829003601f168201915b505050505081565b600081600560003373ffffffffffffffffffffffffffffffffffffffff1673ffffffffffffffffffffffffffffffffffffffff16815260200190815260200160002060008573ffffffffffffffffffffffffffffffffffffffff1673ffffffffffffffffffffffffffffffffffffffff168152602001908152602001600020819055508273ffffffffffffffffffffffffffffffffffffffff163373ffffffffffffffffffffffffffffffffffffffff167f8c5be1e5ebec7d5bd14f71427d1e84f3dd0314c0f7b2291e5b200ac8c7c3b9258460405161040d9190610c87565b60405180910390a36001905092915050565b6000600560008473ffffffffffffffffffffffffffffffffffffffff1673ffffffffffffffffffffffffffffffffffffffff16815260200190815260200160002060008373ffffffffffffffffffffffffffffffffffffffff1673ffffffffffffffffffffffffffffffffffffffff16815260200190815260200160002054905092915050565b60035481565b6000600460008573ffffffffffffffffffffffffffffffffffffffff1673ffffffffffffffffffffffffffffffffffffffff16815260200190815260200160002054821115610530576040517f08c379a000000000000000000000000000000000000000000000000000000000815260040161052790610e06565b60405180910390fd5b600560008573ffffffffffffffffffffffffffffffffffffffff1673ffffffffffffffffffffffffffffffffffffffff16815260200190815260200160002060003373ffffffffffffffffffffffffffffffffffffffff1673ffffffffffffffffffffffffffffffffffffffff168152602001908152602001600020548211156105ef576040517f08c379a00000000000000000000000000000000000000000000000000000000081526004016105e690610e72565b60405180910390fd5b81600460008673ffffffffffffffffffffffffffffffffffffffff1673ffffffffffffffffffffffffffffffffffffffff168152602001908152602001600020600082825461063e9190610ec1565b9250508190555081600460008573ffffffffffffffffffffffffffffffffffffffff1673ffffffffffffffffffffffffffffffffffffffff16815260200190815260200160002060008282546106949190610ef5565b9250508190555081600560008673ffffffffffffffffffffffffffffffffffffffff1673ffffffffffffffffffffffffffffffffffffffff16815260200190815260200160002060003373ffffffffffffffffffffffffffffffffffffffff1673ffffffffffffffffffffffffffffffffffffffff16815260200190815260200160002060008282546107279190610ec1565b925050819055508273ffffffffffffffffffffffffffffffffffffffff168473ffffffffffffffffffffffffffffffffffffffff167fddf252ad1be2c89b69c2b068fc378daa952ba7f163c4a11628f55a4df523b3ef8460405161078b9190610c87565b60405180910390a3600190509392505050565b600260009054906101000a900460ff1681565b60046020528060005260406000206000915090505481565b600180546107d690610d88565b80601f016020809104026020016040519081016040528092919081815260200182805461080290610d88565b801561084f5780601f106108245761010080835404028352916020019161084f565b820191906000526020600020905b81548152906001019060200180831161083257829003601f168201915b505050505081565b6000600460008373ffffffffffffffffffffffffffffffffffffffff1673ffffffffffffffffffffffffffffffffffffffff168152602001908152602001600020549050919050565b600081600460003373ffffffffffffffffffffffffffffffffffffffff1673ffffffffffffffffffffffffffffffffffffffff168152602001908152602001600020541015610924576040517f08c379a000000000000000000000000000000000000000000000000000000000815260040161091b90610e06565b60405180910390fd5b81600460003373ffffffffffffffffffffffffffffffffffffffff1673ffffffffffffffffffffffffffffffffffffffff16815260200190815260200160002060008282546109739190610ec1565b9250508190555081600460008573ffffffffffffffffffffffffffffffffffffffff1673ffffffffffffffffffffffffffffffffffffffff16815260200190815260200160002060008282546109c99190610ef5565b925050819055508273ffffffffffffffffffffffffffffffffffffffff163373ffffffffffffffffffffffffffffffffffffffff167fddf252ad1be2c89b69c2b068fc378daa952ba7f163c4a11628f55a4df523b3ef84604051610a2d9190610c87565b60405180910390a36001905092915050565b6000600354905090565b6005602052816000526040600020602052806000526040600020600091509150505481565b600081519050919050565b600082825260208201905092915050565b60005b83811015610aa8578082015181840152602081019050610a8d565b83811115610ab7576000848401525b50505050565b6000601f19601f8301169050919050565b6000610ad982610a6e565b610ae38185610a79565b9350610af3818560208601610a8a565b610afc81610abd565b840191505092915050565b60006020820190508181036000830152610b218184610ace565b905092915050565b600080fd5b600073ffffffffffffffffffffffffffffffffffffffff82169050919050565b6000610b5982610b2e565b9050919050565b610b6981610b4e565b8114610b7457600080fd5b50565b600081359050610b8681610b60565b92915050565b6000819050919050565b610b9f81610b8c565b8114610baa57600080fd5b50565b600081359050610bbc81610b96565b92915050565b60008060408385031215610bd957610bd8610b29565b5b6000610be785828601610b77565b9250506020610bf885828601610bad565b9150509250929050565b60008115159050919050565b610c1781610c02565b82525050565b6000602082019050610c326000830184610c0e565b92915050565b60008060408385031215610c4f57610c4e610b29565b5b6000610c5d85828601610b77565b9250506020610c6e85828601610b77565b9150509250929050565b610c8181610b8c565b82525050565b6000602082019050610c9c6000830184610c78565b92915050565b600080600060608486031215610cbb57610cba610b29565b5b6000610cc986828701610b77565b9350506020610cda86828701610b77565b9250506040610ceb86828701610bad565b9150509250925092565b600060ff82169050919050565b610d0b81610cf5565b82525050565b6000602082019050610d266000830184610d02565b92915050565b600060208284031215610d4257610d41610b29565b5b6000610d5084828501610b77565b91505092915050565b7f4e487b7100000000000000000000000000000000000000000000000000000000600052602260045260246000fd5b60006002820490506001821680610da057607f821691505b60208210811415610db457610db3610d59565b5b50919050565b7f4e6f7420656e6f7567682062616c616e63650000000000000000000000000000600082015250565b6000610df0601283610a79565b9150610dfb82610dba565b602082019050919050565b60006020820190508181036000830152610e1f81610de3565b9050919050565b7f416c6c6f77616e63652065786365656465640000000000000000000000000000600082015250565b6000610e5c601283610a79565b9150610e6782610e26565b602082019050919050565b60006020820190508181036000830152610e8b81610e4f565b9050919050565b7f4e487b7100000000000000000000000000000000000000000000000000000000600052601160045260246000fd5b6000610ecc82610b8c565b9150610ed783610b8c565b925082821015610eea57610ee9610e92565b5b828203905092915050565b6000610f0082610b8c565b9150610f0b83610b8c565b9250827fffffffffffffffffffffffffffffffffffffffffffffffffffffffffffffffff03821115610f4057610f3f610e92565b5b82820190509291505056fea2646970667358221220dcf91338da2e2e2a4e28ea77d5c434399e91529cc68205f735e74faba074a39a64736f6c634300080c0033",
  "immutableReferences": {},
  "source": "// SPDX-License-Identifier: MIT\r\npragma solidity ^0.8.0;\r\n\r\ncontract Token {\r\n    string public name = \"My Token\";\r\n    string public symbol = \"MTK\";\r\n    uint8 public decimals = 18;\r\n    uint256 public totalSupply;\r\n\r\n    mapping(address => uint256) public balanceOf;\r\n    mapping(address => mapping(address => uint256)) public allowance;\r\n\r\n    event Transfer(address indexed from, address indexed to, uint256 value);\r\n    event Approval(address indexed owner, address indexed spender, uint256 value);\r\n\r\n    // Constructor: Initialize the contract with a total supply and assign it to the deployer\r\n    constructor(uint256 _initialSupply) {\r\n        totalSupply = _initialSupply * 10 ** uint256(decimals);\r\n        balanceOf[msg.sender] = totalSupply; // Assign the initial supply to the contract deployer\r\n    }\r\n\r\n    // Transfer function: Allows a user to send tokens to another address\r\n    function transfer(address _to, uint256 _value) public returns (bool success) {\r\n        require(balanceOf[msg.sender] >= _value, \"Not enough balance\");\r\n        balanceOf[msg.sender] -= _value;\r\n        balanceOf[_to] += _value;\r\n        emit Transfer(msg.sender, _to, _value);\r\n        return true;\r\n    }\r\n\r\n    // Approve function: Allows a spender to withdraw a certain amount from the owner's account\r\n    function approve(address _spender, uint256 _value) public returns (bool success) {\r\n        allowance[msg.sender][_spender] = _value;\r\n        emit Approval(msg.sender, _spender, _value);\r\n        return true;\r\n    }\r\n\r\n    // TransferFrom function: Allows a spender to transfer tokens on behalf of the owner\r\n    function transferFrom(address _from, address _to, uint256 _value) public returns (bool success) {\r\n        require(_value <= balanceOf[_from], \"Not enough balance\");\r\n        require(_value <= allowance[_from][msg.sender], \"Allowance exceeded\");\r\n        \r\n        balanceOf[_from] -= _value;\r\n        balanceOf[_to] += _value;\r\n        allowance[_from][msg.sender] -= _value;\r\n        emit Transfer(_from, _to, _value);\r\n        return true;\r\n    }\r\n\r\n    // Returns the total supply of tokens in existence\r\n    function getTotalSupply() public view returns (uint256) {\r\n        return totalSupply;\r\n    }\r\n\r\n    // Returns the token balance of a specific address\r\n    function getBalanceOf(address _owner) public view returns (uint256 balance) {\r\n        return balanceOf[_owner];\r\n    }\r\n\r\n    // Returns the remaining number of tokens that a spender is allowed to spend on behalf of the owner\r\n    function getAllowance(address _owner, address _spender) public view returns (uint256 remaining) {\r\n        return allowance[_owner][_spender];\r\n    }\r\n}\r\n",
  "sourcePath": "C:\\work profile\\Ethereum API\\contracts\\ERC-20-Token.sol",
  "compiler": {
    "name": "solc",
    "version": "0.8.12+commit.f00d7308.Emscripten.clang"
  },
  "schemaVersion": "3.4.16",
  "updatedAt": "2024-10-15T13:26:02.630Z",
  "networkType": "ethereum",
  "devdoc": {
    "kind": "dev",
    "methods": {},
    "version": 1
  },
  "userdoc": {
    "kind": "user",
    "methods": {},
    "version": 1
  }
}